:020000040800F2
:10000000FF4F00204937000891370008913700085A
:100010009137000891370008913700080000000070
:100020000000000000000000000000009137000800
:100030009137000800000000913700089137000850
:100040009137000891370008913700089137000870
:100050009137000891370008913700089137000860
:100060009137000891370008913700089137000850
:100070009137000891370008913700089137000840
:100080009137000891370008913700089137000830
:100090009137000891370008913700089137000820
:1000A0009137000891370008913700089137000810
:1000B0009137000891370008913700089137000800
:1000C00091370008913700089137000891370008F0
:1000D00091370008913700089137000891370008E0
:1000E00091370008913700089137000800000000A0
:1000F0000000000000000000000000000000000000
:0C01000000000000000000005FF808F1A3
:10010C0010B5054C237833B9044B13B10448AFF345
:10011C0000800123237010BD3C040020000000006F
:10012C00503A000808B5034B1BB103490348AFF321
:10013C00008008BD0000000040040020503A000878
:10014C00154B002B08BF134B9D46A3F5803A00219D
:10015C008B460F461348144A121A03F049FB0F4BF7
:10016C00002B00D098470E4B002B00D09847002056
:10017C00002104000D000D48002802D00C4803F0AB
:10018C00E9FB03F011FB2000290000F020F803F03C
:10019C00FBFA00BF00000800000000000000000097
:1001AC00000000003C0400207C04002061390008A1
:1001BC006D39000880B483B000AF786039607B681B
:1001CC003A68DA6000BF0C37BD4680BC704780B51A
:1001DC0086B000AF40F201137B600123BB600423A7
:1001EC003B610223FB603B1D1946064802F0F8F800
:1001FC004FF6FE710348FFF7DDFF00231846183752
:10020C00BD4680BD0010014080B400AF154B1B688B
:10021C00144A43F001031360124B5A681149124BF4
:10022C0013404B600F4B1B680E4A23F0847323F46E
:10023C00803313600B4B1B680A4A23F48023136032
:10024C00084B5B68074A23F4FE035360054B4FF4DD
:10025C001F029A60054B4FF000629A6000BFBD46CA
:10026C0080BC7047001002400000FFF800ED00E079
:10027C0080B485B000AF0023FB600023BB6000237B
:10028C007B602D4B5B6803F00C03FB60FB68042B5D
:10029C0009D0FB68082B0AD0FB68002B33D1274B05
:1002AC00274A1A6033E0254B254A1A602FE0224B6F
:1002BC005B6803F47013BB601F4B5B6803F4803303
:1002CC007B60BB689B0C0233BB607B68002B06D148
:1002DC00BB681C4A02FB03F3184A136017E0164B69
:1002EC005B6803F40033002B06D0BB68154A02FB95
:1002FC0003F3124A13600AE0BB68114A02FB03F3D2
:10030C000E4A136003E00D4B0D4A1A6000BF0A4BF6
:10031C005B681B0903F00F030B4AD35CFB60074BB4
:10032C001A68FB6822FA03F3044A136000BF1437FF
:10033C00BD4680BC704700BF001002400400002086
:10034C0000127A0000093D006C3A0008CC3A000813
:10035C00000000203C0400203C0400207C04002011
:10036C0080B400AF044B1B68034A43F48023136032
:10037C0000BFBD4680BC70470010024080B400AF87
:10038C00044B1B68034A23F48023136000BFBD4653
:10039C0080BC70470010024080B400AF044B1B6857
:1003AC00034A43F48033136000BFBD4680BC7047E2
:1003BC000010024080B400AF064B1B6803F40033FE
:1003CC00B3F5003F0CBF01230023DBB21846BD463A
:1003DC0080BC70470010024080B400AF044B1B6817
:1003EC00034A43F00103136000BFBD4680BC704755
:1003FC000010024080B400AF064B1B6803F00203F0
:10040C00022B0CBF01230023DBB21846BD4680BC77
:10041C00704700BF0010024080B483B000AF78601A
:10042C00064B5B6823F0030204497B6813434B6063
:10043C0000BF0C37BD4680BC704700BF00100240A7
:10044C0080B400AF034B5B6803F00C031846BD4649
:10045C0080BC70470010024080B483B000AF78605D
:10046C00064B5B6823F0F00204497B6813434B6036
:10047C0000BF0C37BD4680BC704700BF0010024067
:10048C0080B483B000AF7860064B5B6823F4E06205
:10049C0004497B6813434B6000BF0C37BD4680BCDE
:1004AC00704700BF0010024080B483B000AF78608A
:1004BC00064B5B6823F4605204497B6813434B6022
:1004CC0000BF0C37BD4680BC704700BF0010024017
:1004DC0080B400AF034B5B6803F0F0031846BD46D5
:1004EC0080BC70470010024080B400AF044B1B6806
:1004FC00034A43F08073136000BFBD4680BC704755
:10050C000010024080B400AF064B1B6803F0007370
:10051C00B3F1007F0CBF01230023DBB21846BD46AC
:10052C0080BC70470010024080B483B000AF78608C
:10053C003960084B5B6823F47C127B6803F4403110
:10054C003B680B43034913434B6000BF0C37BD465C
:10055C0080BC70470010024080B483B000AF78605C
:10056C0039607A683B68B2FBF3F3074A013B53608E
:10057C00054B00229A60044B05221A6000BF0C3711
:10058C00BD4680BC704700BF10E000E080B483B073
:10059C0000AF7860064B1B6823F0070204497B68A8
:1005AC0013430B6000BF0C37BD4680BC704700BFC7
:1005BC000020024080B400AF034B1B6803F007031C
:1005CC001846BD4680BC70470020024080B582B002
:1005DC0000AF78604FF47A717868FFF7BDFF00BF09
:1005EC000837BD4680BD80B485B000AF78600E4B37
:1005FC001B68FB60FB687B68B3F1FF3F0CD07B682A
:10060C0001337B6008E0084B1B6803F48033002B3C
:10061C0002D07B68013B7B607B68002BF3D100BF71
:10062C001437BD4680BC704710E000E080B483B046
:10063C0000AF7860034A7B68136000BF0C37BD467F
:10064C0080BC70470400002080B584B000AF786097
:10065C0039600023FB730023BB6000F0BCF8034639
:10066C00002B22D17B684FF400325A607968124813
:10067C0000F096F8B860FFF7BDFE0346012B07D0DB
:10068C00FFF7AAFE00BFFFF7B5FE0346012BFAD118
:10069C007B681B6819460020FFF746FF3968B8686D
:1006AC0000F0AAF80346FB7301E00123FB73FB7B0C
:1006BC0018461037BD4680BD00127A0080B586B052
:1006CC0000AFF860B9607A603B600023FB750023D3
:1006DC003B6100F080F80346002B2AD17968F8685A
:1006EC0000F05EF83861FFF765FE0346012B0FD072
:1006FC00BB68012B02D1FFF733FE01E0FFF73EFE92
:10070C00FFF74AFE00BFFFF755FE0346012BFAD157
:10071C007B685B6843F480327B681B681946104623
:10072C00FFF702FF3968386900F066F80346FB757D
:10073C0001E00123FB75FB7D18461837BD4680BDD3
:10074C0080B584B000AF78600023FB730023BB60DE
:10075C007B68002B02D10123FB7317E07B680E4AE8
:10076C00934202D90223BB6005E07B680B4A93429B
:10077C0001D90123BB60B868FFF708FFFFF71AFF28
:10078C000246BB68934201D00123FB73FB7B1846E6
:10079C001037BD4680BD00BF006CDC0200366E0118
:1007AC0080B485B000AF786039600023FB603B6893
:1007BC005B685B0C01337A68B2FBF3F33A6812683E
:1007CC00920C023202FB03F3FB60FB6818461437F1
:1007DC00BD4680BC704780B582B000AF0023FB7172
:1007EC00FFF790FE0346002B01D00123FB71FB7930
:1007FC0018460837BD4680BD90B585B000AF78600F
:10080C0039600023FB730023BB602A4B1C68FFF785
:10081C005FFE03461B09284AD35C04FA03F3BB6052
:10082C00BA687B689A4204D27868FFF789FF03465E
:10083C00FB73FB7B002B1FD1FFF756FE00BFFFF7AE
:10084C0061FE0346012BFAD13B681B681846FFF783
:10085C0003FE0220FFF7E0FD00BFFFF7F1FD0346AA
:10086C00082BFAD13B685B681846FFF709FE3B681A
:10087C009B681846FFF718FEBA687B689A4204D941
:10088C007868FFF75DFF0346FB73FB7B002B0CD1F5
:10089C003B681B681B0903F00F03074AD35C1A461D
:1008AC007B68D3401846FFF7C1FEFB7B1846143714
:1008BC00BD4690BD040000206C3A000880B483B0A3
:1008CC0000AF78607B68DB6803F40053B3F5005F1E
:1008DC000CBF01230023DBB218460C37BD4680BC8D
:1008EC00704780B483B000AF78607B681B6923F4D9
:1008FC0000627B681A6100BF0C37BD4680BC704734
:10090C0080B483B000AF786039607B681B6923F4D6
:10091C0040523B681A437B681A6100BF0C37BD46D6
:10092C0080BC704780B483B000AF786039607B685E
:10093C005B6923F440723B681A437B685A6100BFC1
:10094C000C37BD4680BC704780B485B000AFF860F2
:10095C00B9607A60BA6813469B0013449A001A4433
:10096C007B689B00B2FBF3F3254AA2FB03235B09D4
:10097C009BB21B0199B2BA6813469B0013449A00B0
:10098C001A447B689B00B2FBF3F21D4BA3FB0203E2
:10099C005B09642000FB03F3D31A1B013233184AA2
:1009AC00A2FB03235B099BB203F0F0039BB20B4445
:1009BC0099B2BA6813469B0013449A001A447B6898
:1009CC009B00B2FBF3F20E4BA3FB02035B0964200A
:1009DC0000FB03F3D31A1B013233094AA2FB032396
:1009EC005B099BB203F00F039BB20B449BB21A46FC
:1009FC00FB689A6000BF1437BD4680BC704700BFCF
:100A0C001F85EB5180B483B000AF7860054B1A6939
:100A1C0004497B6813430B6100BF0C37BD4680BC97
:100A2C00704700BF0010024080B483B000AF786004
:100A3C00054B1A697B68DB43034913400B6100BF0C
:100A4C000C37BD4680BC70470010024080B483B0A8
:100A5C0000AF7860054BDA6804497B681343CB60C0
:100A6C0000BF0C37BD4680BC704700BF0010024071
:100A7C0080B483B000AF7860054BDA687B68DB43E9
:100A8C0003491340CB6000BF0C37BD4680BC704798
:100A9C000010024080B584B000AF78600023FB7377
:100AAC007B68164A934208D14FF48040FFF7CEFF83
:100ABC004FF48040FFF7DCFF1BE07B68104A934249
:100ACC0008D14FF40030FFF79DFF4FF40030FFF7D3
:100ADC00ABFF0EE07B680B4A934208D14FF48020A9
:100AEC00FFF790FF4FF48020FFF79EFF01E00123FA
:100AFC00FB73FB7B18461037BD4680BD00380140A8
:100B0C00004400400048004080B588B000AF7860D9
:100B1C0039600123FB770023BB617868FFF7CEFEB9
:100B2C000346002B45D17B68DB6823F4B05323F0DC
:100B3C000C033A6851683A68D26811433A681269F2
:100B4C000A431A437B68DA603B689B6819467868ED
:100B5C00FFF7D6FE3B685B6919467868FFF7E2FE43
:100B6C0007F10803184600F0DBF97B68134A93423F
:100B7C0002D17B69BB610CE07B68114A934202D1C4
:100B8C003B69BB6105E07B680E4A934201D13B692E
:100B9C00BB61BB69002B0CD03B681B68002B08D0D9
:100BAC000023FB773B681B681A46B9697868FFF726
:100BBC00CBFEFB7F18462037BD4680BD0038014078
:100BCC00004400400048004080B483B000AF78601F
:100BDC007B684FF416521A607B6800225A607B685F
:100BEC0000229A607B680022DA607B680C221A6112
:100BFC007B6800225A6100BF0C37BD4680BC704731
:100C0C0080B584B000AF786039600023FB737868DE
:100C1C00FFF754FE0346002B19D13B681B68002BD1
:100C2C0003D17868FFF75DFE13E07B681B6923F442
:100C3C0070623B6859683B689B6819433B68DB688A
:100C4C000B43134343F400627B681A6101E00123F8
:100C5C00FB73FB7B18461037BD4680BD80B483B058
:100C6C0000AF78607B6800221A607B6800225A60B3
:100C7C007B6800229A607B680022DA6000BF0C3728
:100C8C00BD4680BC704700BF80B483B000AF7860B5
:100C9C007B689B6843F001027B689A6000BF0C374D
:100CAC00BD4680BC704780B483B000AF78603960BB
:100CBC003B68DAB27B681A7100BF0C37BD4680BC4A
:100CCC00704780B584B000AF78600023FB737B68FD
:100CDC00084A934207D17868FFF7D6FF002178685D
:100CEC00FFF7E1FF01E00123FB73FB7B1846103794
:100CFC00BD4680BD0030024080B400AF044B1B6881
:100D0C00034A43F00103136000BFBD4680BC70472B
:100D1C000010024080B400AF064B1B6803F00203C6
:100D2C00022B0CBF01230023DBB21846BD4680BC4E
:100D3C00704700BF0010024080B483B000AF7860F1
:100D4C00064B1B6823F0F8027B68DB000349134356
:100D5C000B6000BF0C37BD4680BC704700100240D2
:100D6C0080B483B000AF7860064B5B6823F003025D
:100D7C0004497B6813434B6000BF0C37BD4680BCF5
:100D8C00704700BF0010024080B400AF034B5B689B
:100D9C0003F00C031846BD4680BC7047001002409F
:100DAC0080B400AF034B5B6803F0F0031846BD46FC
:100DBC0080BC70470010024080B400AF034B5B68EE
:100DCC0003F4E0631846BD4680BC70470010024037
:100DDC0080B400AF034B5B6803F460531846BD4608
:100DEC0080BC70470010024080B483B000AF7860C4
:100DFC00044B5A687B68134018460C37BD4680BCC0
:100E0C00704700BF0010024080B483B000AF786020
:100E1C00044B5A687B68134018460C37BD4680BC9F
:100E2C00704700BF0010024080B400AF064B1B6837
:100E3C0003F00073B3F1007F0CBF01230023DBB27E
:100E4C001846BD4680BC70470010024080B400AF0D
:100E5C00034B5B6803F480331846BD4680BC704777
:100E6C000010024080B400AF034B5B6803F47013B6
:100E7C001846BD4680BC70470010024080B400AFDD
:100E8C00044B5B685B0C03F001031846BD4680BC49
:100E9C00704700BF0010024080B400AF044B5B6A87
:100EAC00034A43F08073536200BFBD4680BC704759
:100EBC000010024080B500AFFFF71EFF00BFFFF728
:100ECC0029FF0346012BFAD10020FFF749FF00BF91
:100EDC00FFF75AFF0346002BFAD1104B1B680F4A41
:100EEC0023F08073136000BFFFF79EFF0346002BB7
:100EFC00FAD10A4B00225A60084B1B68074A23F4AC
:100F0C00502313601020FFF717FF044B00229A6048
:100F1C00FFF7C2FF0023184680BD00BF001002403F
:100F2C0080B582B000AF786000F079F802467B683B
:100F3C001A607B681B68184600F094F802467B68C0
:100F4C005A607B685B68184600F0A2F802467B6822
:100F5C009A607B685B68184600F0AEF802467B68C6
:100F6C00DA6000BF0837BD4680BD80B584B000AFE5
:100F7C0078600023FB607868FFF736FF0346B3F513
:100F8C00800F08D1FFF750FF0346002B11D000F063
:100F9C00A7F8F8600DE0FFF747FF0346002B0AD0D7
:100FAC0000F09EF8024613465B0013445B08FB609E
:100FBC0001E000BF00E000BFFB6818461037BD46DB
:100FCC0080BD80B586B000AF786000237B610023C4
:100FDC003B617868FFF718FF786100F020F8034652
:100FEC00184600F03FF80346184600F065F8024634
:100FFC007B68FB60FB6893FAA3F3BB60BB68B3FA36
:10100C0083F3DBB219467B69CB4001335B00B2FB47
:10101C00F3F33B613B6918461837BD4680BD80B57C
:10102C0082B000AF00237B60FFF7AEFE0346042BBB
:10103C0006D0082B07D0002B09D1094B7B6009E0A7
:10104C00074B7B6006E000F04BF8786002E0044B45
:10105C007B6000BF7B6818460837BD4680BD00BF6B
:10106C0000127A0080B582B000AF7860FFF798FE6E
:10107C0003461B0903F00F03044AD35C1A467B6832
:10108C00D34018460837BD4680BD00BF6C3A0008F7
:10109C0080B582B000AF7860FFF78EFE03461B0A66
:1010AC00044AD35C1A467B68D34018460837BD46C1
:1010BC0080BD00BF7C3A000880B582B000AF78607C
:1010CC00FFF786FE0346DB0A044AD35C1A467B68AC
:1010DC00D34018460837BD4680BD00BF7C3A000897
:1010EC0080B582B000AF00237B6000233B60FFF72C
:1010FC00ADFE38603B68002B04D03B68B3F5803FF5
:10110C0003D00BE00D4B7B600BE0FFF7B7FE034603
:10111C0001330B4AB2FBF3F37B6002E0074B7B60BD
:10112C0000BFFFF79FFE03469B0C02337A6802FB5D
:10113C0003F318460837BD4680BD00BF00093D00CB
:10114C0000127A0080B483B000AF78607B681B68B3
:10115C0043F001027B681A6000BF0C37BD4680BCAF
:10116C00704780B483B000AF78607B681B6823F055
:10117C0001027B681A6000BF0C37BD4680BC70470B
:10118C0080B485B000AFF860B9607A60FB689B688A
:10119C0023F4034323F0FF03B9687A680A431A4324
:1011AC00FB689A6000BF1437BD4680BC704790B492
:1011BC0084B000AFF860B9607A603B600024002412
:1011CC00BB68404AA2FB03239C0CFB685B6823F0C2
:1011DC003F0344EA0302FB685A60FB681B6A23F076
:1011EC003F027B6838498B4201D8631C08E04FF4FE
:1011FC00967303FB04F33549A1FB03139B090133DD
:10120C001A43FB681A627B682F4A934239D93B68B0
:10121C00002B17D17A6813465B001344BA68B2FBF3
:10122C00F3F3C3F30B03002B09D07A6813465B006E
:10123C001344BA68B2FBF3F343F400431DE048F2E5
:10124C0001031AE07A6813469B0013449A00134476
:10125C00BA68B2FBF3F3C3F30B03002B0BD07A6821
:10126C0013469B0013449A001344BA68B2FBF3F381
:10127C0043F4004301E048F201033A6843EA0204F4
:10128C0011E07B685B00BA68B2FBF3F240F6FC73CA
:10129C001340002B05D07B685B00BA68B2FBF3F3FC
:1012AC0000E004231C46FB68DB6923F44F4323F066
:1012BC00FF0344EA0302FB68DA6100BF1037BD4646
:1012CC0090BC704783DE1B43A0860100D34D621097
:1012DC0080B483B000AF786039607B681B6823F002
:1012EC001A023B681A437B681A6000BF0C37BD4674
:1012FC0080BC704780B483B000AF786039607B6885
:10130C001B6823F480623B681A437B681A6000BF39
:10131C000C37BD4680BC704780B483B000AF78609A
:10132C00054B1A6904497B6813430B6100BF0C37EA
:10133C00BD4680BC704700BF0010024080B483B033
:10134C0000AF7860054B1A697B68DB430349134097
:10135C000B6100BF0C37BD4680BC704700100240CB
:10136C0080B584B000AF78600023FB737B68104AB3
:10137C00934208D14FF40010FFF7CEFF4FF400104A
:10138C00FFF7DCFF0EE07B680A4A934208D14FF46A
:10139C008000FFF7C1FF4FF48000FFF7CFFF01E0A3
:1013AC000123FB73FB7B18461037BD4680BD00BF85
:1013BC00005400400058004080B586B000AF786003
:1013CC0039607868FFF7CDFE07F108031846FFF780
:1013DC00A7FD39693B685A683B689B687868FFF7DA
:1013EC00E6FE3B68D9683B685B691A467868FFF78C
:1013FC00C7FE3B681B6819467868FFF769FF786879
:10140C00FFF7A0FE3B681B6919467868FFF772FF6F
:10141C00002318461837BD4680BD80B483B000AF9A
:10142C0078607B6800221A607B6841F288325A60CF
:10143C007B6800229A607B680022DA607B6800225D
:10144C001A617B684FF480425A6100BF0C37BD466D
:10145C0080BC704780B483B000AF7860054B1A69CC
:10146C0004497B6813430B6100BF0C37BD4680BC3D
:10147C00704700BF0010024080B483B000AF7860AA
:10148C00054B1A697B68DB43034913400B6100BFB2
:10149C000C37BD4680BC70470010024080B500AFD1
:1014AC004FF08050FFF7D6FF4FF08050FFF7E4FF6E
:1014BC000023184680BD00BF80B483B000AF7860B5
:1014CC0039607B689B6823F00F023B681B0C1A4346
:1014DC007B689A607B68DB681B0C1B043A6892B2D1
:1014EC001A437B68DA6000BF0C37BD4680BC70477E
:1014FC0080B483B000AF786039607B68DB6A23F41A
:10150C0060723B681A437B68DA6200BF0C37BD46D9
:10151C0080BC704780B483B000AF78607B685B6838
:10152C0023F010027B685A6000BF0C37BD4680BCAC
:10153C00704780B483B000AF78607B685B6843F021
:10154C0010027B685A6000BF0C37BD4680BC7047E8
:10155C0080B483B000AF786039603B681A0C7B684C
:10156C009A613B689AB27B68DA6100BF0C37BD4662
:10157C0080BC704780B483B000AF786039603B6842
:10158C001A0C7B681A623B689AB27B685A6200BF7D
:10159C000C37BD4680BC704780B483B000AF786018
:1015AC00054B1B6B044A23F00103136300BF0C377C
:1015BC00BD4680BC704700BF006C004080B483B057
:1015CC0000AF78607B685B6823F002027B685A602E
:1015DC0000BF0C37BD4680BC704780B483B000AFF1
:1015EC0078607B685B6803F00803082B0CBF012351
:1015FC000023DBB218460C37BD4680BC704780B464
:10160C0083B000AF78607B685B6823F008027B686E
:10161C005A6000BF0C37BD4680BC704780B483B0A5
:10162C0000AF78607B685B6823F004027B685A60CB
:10163C0000BF0C37BD4680BC704780B483B000AF90
:10164C0078607B685B6823F001027B685A6000BF9E
:10165C000C37BD4680BC704780B483B000AF786057
:10166C007B685B6803F02003202B0CBF0123002355
:10167C00DBB218460C37BD4680BC704780B400AF57
:10168C00064B1B6803F48033B3F5803F0CBF01237A
:10169C000023DBB21846BD4680BC704710E000E06A
:1016AC0080B584B000AF78600123FB737868FFF7D6
:1016BC0040FF786800F098F90346012B2DD07B6829
:1016CC000022DA617B6800229A617B6800229A60B2
:1016DC007B684FF40042DA607B6800221A607B68FA
:1016EC0020225A60114B0022DA62104B00221A633E
:1016FC000E4B00225A63786800F0A5F90346012BC3
:10170C000ED0786800F004FA0346FB737868FFF794
:10171C0076FF7868FFF7FEFE02E07868FFF7FAFEC6
:10172C00FB7B18461037BD4680BD00BF006C0040E7
:10173C0080B584B000AF786039600123FB737868A2
:10174C0000F0E6F90346012B26D0786800F04CF93E
:10175C000346012B20D07868FFF730FF7868FFF73D
:10176C005DFF7868FFF769FF3B685B68002B02D070
:10177C000C48FFF711FF3B685B6819460948FFF7F7
:10178C00B7FE3B681B6819467868FFF795FE7868CA
:10179C0000F059F90023FB73FB7B18461037BD464C
:1017AC0080BD00BF006C004080B483B000AF786097
:1017BC007B6847F6FF721A607B6800225A6000BF94
:1017CC000C37BD4680BC704780B586B000AFF86062
:1017DC00B9607A600123FB7500233B61F86800F067
:1017EC0003F90346012B5DD0BB68002B17D07B6837
:1017FC001B781A464FF4616303FB02F27B685B783B
:10180C0019460B461B015B1A9B0013447A689278AD
:10181C0013443B613969F868FFF79AFE40E07B6836
:10182C001B781B09DBB21A46920013445B00DAB238
:10183C007B681B7803F00F03DBB21344DBB21A4650
:10184C004FF4616303FB02F27B685B781B09DBB22C
:10185C00194689000B445B00D9B27B685B7803F0B6
:10186C000F03DBB20B44DBB219460B461B015B1AB0
:10187C009B0013447A6892781209D2B211468900FF
:10188C000A445200D1B27A68927802F00F02D2B2B6
:10189C000A44D2B213443B613969F868FFF758FE29
:1018AC000023FB75F86800F0CEF8FB7D184618375E
:1018BC00BD4680BD80B483B000AF78607B680022E9
:1018CC001A707B6800225A707B6800229A7000BFE5
:1018DC000C37BD4680BC704780B586B000AFF86051
:1018EC00B9607A600123FB7500233B61F86800F056
:1018FC007BF80346012B5DD0BB68002B17D07B68AF
:10190C001B781A464FF4616303FB02F27B685B7829
:10191C0019460B461B015B1A9B0013447A6892789C
:10192C0013443B613969F868FFF724FE40E07B689B
:10193C001B781B09DBB21A46920013445B00DAB227
:10194C007B681B7803F00F03DBB21344DBB21A463F
:10195C004FF4616303FB02F27B685B781B09DBB21B
:10196C00194689000B445B00D9B27B685B7803F0A5
:10197C000F03DBB20B44DBB219460B461B015B1A9F
:10198C009B0013447A6892781209D2B211468900EE
:10199C000A445200D1B27A68927802F00F02D2B2A5
:1019AC000A44D2B213443B613969F868FFF7E2FD8F
:1019BC000023FB75F86800F046F8FB7D18461837D5
:1019CC00BD4680BD80B483B000AF78607B680022D8
:1019DC001A707B6800225A707B6800229A7000BFD4
:1019EC000C37BD4680BC704780B586B000AF7860C0
:1019FC004FF47A73FB600023FB7500233B6178681E
:101A0C00FFF72AFE386110E0FFF738FE0346012B82
:101A1C0002D1FB68013BFB607868FFF71DFE386163
:101A2C00FB68002B01D10123FB75FB68002B02D056
:101A3C003B69012BE8D17868FFF77BFDFB7D1846ED
:101A4C001837BD4680BD80B586B000AF78604FF4C6
:101A5C007A73FB600023FB7500233B617868FFF70A
:101A6C0059FD7868FFF7F8FD386110E0FFF706FEC6
:101A7C000346012B02D1FB68013BFB607868FFF742
:101A8C00EBFD3861FB68002B01D10123FB75FB6872
:101A9C00002B02D03B69012BE8D1FB7D184618378F
:101AAC00BD4680BD80B584B000AF7860396001233D
:101ABC00FB737868FFF798FF0346012B05D0396854
:101ACC007868FFF745FD0023FB737868FFF7BBFFD1
:101ADC00FB7B18461037BD4680BD80B584B000AF87
:101AEC00786039600123FB737868FFF77DFF03464C
:101AFC00012B05D039687868FFF73CFD0023FB7398
:101B0C007868FFF7A0FFFB7B18461037BD4680BDF9
:101B1C0080B586B000AF78604FF47A73FB60002319
:101B2C00FB7500233B617868FFF769FD7868FFF768
:101B3C0054FD386110E0FFF7A1FD0346012B02D1E3
:101B4C00FB68013BFB607868FFF747FD3861FB6879
:101B5C00002B01D10123FB75FB68002B02D03B69E4
:101B6C00002BE8D1FB7D18461837BD4680BD00BF61
:101B7C0080B485B000AFF860B9607A60BB68013B97
:101B8C000C4AD35C1A46FB6813441B6823F4FF43CE
:101B9C0023F07003BA68013A06498A5C1146FA6868
:101BAC000A4411467A6813430B6000BF1437BD46D4
:101BBC0080BC7047843A000880B485B000AFF860F0
:101BCC00B9607A60BB68013B0B4AD35C1A46FB6870
:101BDC0013445B681B0C1B04BA68013A06498A5C07
:101BEC001146FA680A4411467A6813434B6000BFE9
:101BFC001437BD4680BC7047843A000880B485B069
:101C0C0000AFF860B9607A60BB68013B064AD35CF0
:101C1C001A46FB6813441A467B68D36000BF14371E
:101C2C00BD4680BC704700BF843A000880B485B0C4
:101C3C0000AFF860B9607A60BB68013B064AD35CC0
:101C4C001A46FB6813441A467B68936000BF14372E
:101C5C00BD4680BC704700BF843A000880B483B096
:101C6C0000AF78607B6801225A6000BF0C37BD461C
:101C7C0080BC704780B483B000AF78607B68102262
:101C8C005A6000BF0C37BD4680BC704780B483B02F
:101C9C0000AF78607B684FF480725A6000BF0C37DD
:101CAC00BD4680BC704780B483B000AF78607B6861
:101CBC004FF480525A6000BF0C37BD4680BC704751
:101CCC0080B483B000AF78607B684FF480325A6088
:101CDC0000BF0C37BD4680BC704780B483B000AFEA
:101CEC0078607B684FF480125A6000BF0C37BD4699
:101CFC0080BC704780B483B000AF78607B684FF0D5
:101D0C0080725A6000BF0C37BD4680BC704780B5EE
:101D1C0084B000AF78603960444BBB600023FB7328
:101D2C007B68434A934202D13B68012B32D07B68DB
:101D3C003F4A934202D13B68022B28D07B683C4A35
:101D4C00934202D13B68032B1ED07B68384A9342E6
:101D5C0002D13B68042B14D07B68354A934202D1E4
:101D6C003B68052B0AD07B68314A934204D13B680F
:101D7C00062B01D12F4B03E02F4B01E02F4B02E040
:101D8C0001E02F4B02E001E02E4B02E001E02E4B74
:101D9C0001E000E0254BBB60BB681B6823F001022F
:101DAC00BB681A60BB6800221A60BB6800225A60CC
:101DBC00BB6800229A60BB680022DA603B68012B8A
:101DCC0003D17868FFF74AFF2BE03B68022B03D165
:101DDC007868FFF74FFF24E03B68032B03D178684A
:101DEC00FFF754FF1DE03B68042B03D17868FFF725
:101DFC005AFF16E03B68052B03D17868FFF760FFAC
:101E0C000FE03B68062B03D17868FFF766FF08E00C
:101E1C003B68072B03D17868FFF76CFF01E00123C7
:101E2C00FB73FB7B18461037BD4680BD0800024093
:101E3C00000002406C00024080000240580002404A
:101E4C0044000240300002401C00024080B584B0C7
:101E5C0000AFF860B9607A607B689A687B68DB6871
:101E6C001A437B681B691A437B685B691A437B685E
:101E7C009B691A437B68DB691A437B685B6A134373
:101E8C001A46B968F868FFF773FE7B685B681A46F8
:101E9C00B968F868FFF7B2FE7B681B681A46B96828
:101EAC00F868FFF7C3FE7B681B6A1A46B968F868C6
:101EBC00FFF782FE002318461037BD4680BD80B464
:101ECC0083B000AF78607B6800221A607B680022C8
:101EDC005A607B6800229A607B680022DA607B681B
:101EEC0000221A617B6800225A617B6800229A6189
:101EFC007B680022DA617B6800221A627B68002210
:101F0C005A6200BF0C37BD4680BC704780B483B0AA
:101F1C0000AF7860054B1A6804497B6813430B606B
:101F2C0000BF0C37BD4680BC704700BF00040140A9
:101F3C0080B483B000AF7860054B1A687B68DB43D4
:101F4C00034913400B6000BF0C37BD4680BC704783
:101F5C000004014080B483B000AF7860054B5A6830
:101F6C0004497B6813434B6000BF0C37BD4680BCF3
:101F7C00704700BF0004014080B483B000AF7860AC
:101F8C00054B5A687B68DB43034913404B6000BF29
:101F9C000C37BD4680BC70470004014080B483B050
:101FAC0000AF7860054B9A6804497B6813438B60DB
:101FBC0000BF0C37BD4680BC704700BF0004014019
:101FCC0080B483B000AF7860054B9A687B68DB43C4
:101FDC00034913408B6000BF0C37BD4680BC704773
:101FEC000004014080B483B000AF7860054BDA6820
:101FFC0004497B681343CB6000BF0C37BD4680BCE3
:10200C00704700BF0004014080B483B000AF78601B
:10201C00054BDA687B68DB4303491340CB6000BF98
:10202C000C37BD4680BC70470004014080B400AF43
:10203C000B4B00221A600A4B00225A60084B0022FC
:10204C009A60074B0022DA60054B00221A61044BA0
:10205C00044A5A6100231846BD4680BC704700BF35
:10206C0000040140FFFF0F0080B584B000AF786022
:10207C000023FB737B681B79002B60D07B681B688B
:10208C00002B67D07B685B79012B0ED0022B17D00D
:10209C00002B20D17B681B681846FFF76DFF7B680F
:1020AC001B681846FFF732FF18E07B681B68184660
:1020BC00FFF73EFF7B681B681846FFF74BFF0DE0F0
:1020CC007B681B681846FFF721FF7B681B68184666
:1020DC00FFF740FF02E00123FB7300BF7B689B7995
:1020EC00002B37D07B689B79022B0ED0032B17D09B
:1020FC00012B20D17B681B681846FFF785FF7B6896
:10210C001B681846FFF74AFF25E07B681B681846DA
:10211C00FFF756FF7B681B681846FFF763FF1AE052
:10212C007B681B681846FFF739FF7B681B681846ED
:10213C00FFF758FF0FE00123FB7300BF0BE07B6838
:10214C001B681846FFF7F4FE7B681B681846FFF700
:10215C0013FF00E000BFFB7B18461037BD4680BD67
:10216C0080B483B000AF78607B6800221A607B6813
:10217C0000221A717B6800225A717B6802229A71C4
:10218C0000BF0C37BD4680BC704700BF90B488B010
:10219C0000AFF860B9607A60FB681A46BB681B0E2A
:1021AC0013441C462268BB687B617B6993FAA3F3DA
:1021BC003B613B69B3FA83F3DBB29B000F2101FA5D
:1021CC0003F3DB431A40BB68FB61FB6993FAA3F38F
:1021DC00BB61BB69B3FA83F3DBB29B00796801FA8C
:1021EC0003F31343236000BF2037BD4690BC7047F8
:1021FC0090B488B000AFF860B9607A60FB681A469A
:10220C00BB681B0E13441C462268BB687B617B6950
:10221C0093FAA3F33B613B69B3FA83F3DBB29B0004
:10222C00032101FA03F3DB431A40BB68FB61FB6932
:10223C0093FAA3F3BB61BB69B3FA83F3DBB29B00E4
:10224C00796801FA03F31343236000BF2037BD46BE
:10225C0090BC704790B488B000AFF860B9607A60F9
:10226C00FB681A46BB681B0E13441C462268BB68ED
:10227C007B617B6993FAA3F33B613B69B3FA83F30C
:10228C00DBB29B00042101FA03F3DB431A40BB6869
:10229C00FB61FB6993FAA3F3BB61BB69B3FA83F3EC
:1022AC00DBB29B00796801FA03F31343236000BF90
:1022BC002037BD4690BC704780B487B000AFF86043
:1022CC00B9607A60FB68DA68BB681B0ADB431A40AA
:1022DC00BB681B0A7B617B6993FAA3F33B613B6987
:1022EC00B3FA83F3DBB219467B688B401A43FB6865
:1022FC00DA6000BF1C37BD4680BC704780B483B029
:10230C0000AF7860054BDA6804497B681343CB60F7
:10231C0000BF0C37BD4680BC704700BF00100240A8
:10232C0080B483B000AF7860054BDA687B68DB4320
:10233C0003491340CB6000BF0C37BD4680BC7047CF
:10234C000010024080B584B000AF78600023FB73AE
:10235C007B681E4A934206D10420FFF7CFFF04206E
:10236C00FFF7DEFF2DE07B68194A934206D1082067
:10237C00FFF7C4FF0820FFF7D3FF22E07B68154A64
:10238C00934206D11020FFF7B9FF1020FFF7C8FFCA
:10239C0017E07B68104A934206D12020FFF7AEFF6E
:1023AC002020FFF7BDFF0CE07B680C4A934206D15E
:1023BC004020FFF7A3FF4020FFF7B2FF01E001230D
:1023CC00FB73FB7B18461037BD4680BD00080140EF
:1023DC00000C0140001001400014014000180140A5
:1023EC0080B588B000AF786039603B681B681B0211
:1023FC001B0C7B617B693B613B6993FAA3F3FB602C
:10240C00FB68B3FA83F3DBB2FB6140E00122FB69AA
:10241C009A407B691340002B36D0FB69072B06D8FA
:10242C0040F20112FB6902FA03F3BB6108E0FB699D
:10243C00083B4FF0011202FA03F343F08063BB61D7
:10244C003B685B681A46B9697868FFF79FFE3B6882
:10245C001B691A46B9697868FFF72EFF3B685B6801
:10246C00012B03D03B685B68092B0DD13B689B6843
:10247C001A46B9697868FFF7BBFE3B68DB681A46F9
:10248C00B9697868FFF7E6FEFB690133FB617A698D
:10249C00FB6922FA03F3002BB8D10023184620372E
:1024AC00BD4680BD80B483B000AF78607B686FF0B0
:1024BC007B421A607B6804225A607B6802229A6015
:1024CC007B680422DA607B6800221A6100BF0C373B
:1024DC00BD4680BC704700BF80B483B000AF78604D
:1024EC007B681B6803F04003402B01D1012300E003
:1024FC00002318460C37BD4680BC704780B483B0AF
:10250C0000AF786039603B689BB21A467B681A61F1
:10251C0000BF0C37BD4680BC704780B483B000AFA1
:10252C007860054B1A6904497B6813430B6100BF43
:10253C000C37BD4680BC70470010024080B483B09D
:10254C0000AF7860054B1A697B68DB430349134085
:10255C000B6100BF0C37BD4680BC704700100240B9
:10256C0080B483B000AF7860054BDA6804497B68AF
:10257C001343CB6000BF0C37BD4680BC704700BF17
:10258C000010024080B483B000AF7860054BDA686D
:10259C007B68DB4303491340CB6000BF0C37BD465F
:1025AC0080BC70470010024080B584B000AF7860EA
:1025BC000123FB737B68104A934209D14FF480507E
:1025CC00FFF7CEFF4FF48050FFF7DCFF0023FB73C7
:1025DC007B680A4A934209D14FF48040FFF79DFF74
:1025EC004FF48040FFF7AAFF0023FB73FB7B1846D8
:1025FC001037BD4680BD00BF0030014000380040A0
:10260C0080B584B000AF786039600123FB737868C3
:10261C00FFF762FF0346002B39D17B681B6823F45C
:10262C007F4323F0BF033A6811683A68526811433C
:10263C003A68926811433A68D26811433A68126951
:10264C0011433A68526911433A68926911433A68E6
:10265C00D26911433A68126A0A431A437B681A60BA
:10266C007B685B6823F004023B685B691B0C1A43B4
:10267C007B685A603B681B6AB3F5005F05D13B6809
:10268C005B6A19467868FFF739FF0023FB73FB7B05
:10269C0018461037BD4680BD80B483B000AF78605B
:1026AC007B6800221A607B6800225A607B680022DB
:1026BC009A607B680022DA607B6800221A617B6872
:1026CC0000225A617B6800229A617B680022DA61E1
:1026DC007B6800221A627B6807225A6200BF0C37A3
:1026EC00BD4680BC704700BF80B483B000AF78603B
:1026FC0039607B689B6823F460223B6803F4602399
:10270C001A437B689A6000BF0C37BD4680BC70478B
:10271C0080B483B000AF786039607B68DB6A23F4E7
:10272C0070023B681A437B68DA6200BF0C37BD4607
:10273C0080BC704780B483B000AF786039607B6830
:10274C009B6823F4E0423B6803F4E0431A437B6844
:10275C009A6000BF0C37BD4680BC704780B483B014
:10276C0000AF786039607B689B6B23F440123B6848
:10277C001A437B689A6300BF0C37BD4680BC704718
:10278C0080B483B000AF78607B689B6823F0010253
:10279C007B689A6000BF0C37BD4680BC704780B424
:1027AC0083B000AF78607B689B6803F00103012B5A
:1027BC000CBF01230023DBB218460C37BD4680BC8E
:1027CC00704780B483B000AF7860054BDA68044979
:1027DC007B681343CB6000BF0C37BD4680BC704791
:1027EC000010024080B483B000AF7860054BDA680B
:1027FC007B68DB4303491340CB6000BF0C37BD46FD
:10280C0080BC70470010024080B582B000AF786089
:10281C004FF40070FFF7D5FF4FF40070FFF7E2FFA5
:10282C00002318460837BD4680BD90B585B000AF73
:10283C00786039600023FB731348FFF7B0FF044640
:10284C001248FFF7ACFF03462343002B14D13B681F
:10285C001B68002B09D07B685B6823F470223B68F3
:10286C001B681A437B685A6008E07B685B6823F43A
:10287C0070227B685A6001E00123FB73FB7B1846D6
:10288C001437BD4690BD00BF002401400028014014
:10289C0080B483B000AF78607B6800221A6000BF00
:1028AC000C37BD4680BC704780B584B000AF7860F3
:1028BC000023FB737868FFF772FF0346012B0CD1E2
:1028CC004FF460217868FFF70FFF4FF4E041786810
:1028DC00FFF730FF7868FFF753FF7B689B6803F0C6
:1028EC000103002B5FD17B681B6823F01F027B6800
:1028FC001A607B685A682E4B13407A6853607B6869
:10290C009A682C4B13407A6893607B68DB6803F001
:10291C007F427B68DA607B681B6903F040427B680E
:10292C001A617B685B6923F47F6323F00F037A6879
:10293C0053617B689B6923F47F6323F00F037A68F0
:10294C0093617B68DB6923F47F6323F00F037A6860
:10295C00D3617B681B6A23F47F6323F00F037A68CF
:10296C0013627B685B6A6FEA13336FEA03337A682E
:10297C0053627B689B6A23F47F6323F00F037A68AE
:10298C0093627B68DB6A03F07F427B68DA627B6868
:10299C001B6B03F040427B681A637B689B6B9B0D3F
:1029AC009B057A689363FB7B18461037BD4680BD48
:1029BC00000030FFF00601FF80B584B000AF7860F6
:1029CC0039600023FB737868FFF7E9FE0346002BA0
:1029DC0012D17B685B6823F480723B685B681A4396
:1029EC007B685A607B689B6823F400623B681B68B9
:1029FC001A437B689A6001E00123FB73FB7B18464A
:102A0C001037BD4680BD80B483B000AF78607B6862
:102A1C0000221A607B684FF480725A6000BF0C373A
:102A2C00BD4680BC704780B584B000AF786039601B
:102A3C000023FB737868FFF7B2FE0346002B31D1FD
:102A4C003B685B68002B0CD07B685B6823F46842A6
:102A5C003B6859683B689B680B431A437B685A6018
:102A6C0008E07B685B6823F468423B685B681A4348
:102A7C007B685A607B689B6823F4602323F4817322
:102A8C003A6811683A68D26811433A6812690A4385
:102A9C001A437B689A603B685B6819467868FFF755
:102AAC0037FE01E00123FB73FB7B18461037BD4654
:102ABC0080BD80B483B000AF78607B684FF4602237
:102ACC001A607B6800225A607B6800229A607B68DF
:102ADC000022DA607B6800221A6100BF0C37BD4609
:102AEC0080BC704780B584B000AF7860396000233B
:102AFC00FB737868FFF753FE0346002B29D13B6824
:102B0C005B68002B0CD07B685B6823F4A0523B689D
:102B1C0099683B68DB680B431A437B685A6008E092
:102B2C007B685B6823F4A0523B68DB681A437B68C4
:102B3C005A607B689B6823F4E0423B681B681A432D
:102B4C007B689A603B685B6819467868FFF706FEFD
:102B5C0001E00123FB73FB7B18461037BD4680BD9B
:102B6C0080B483B000AF78607B684FF4E0421A60A9
:102B7C007B6800225A607B6800229A607B68002286
:102B8C00DA6000BF0C37BD4680BC704780B483B0A0
:102B9C0000AF786039607B683A689A6200BF0C3786
:102BAC00BD4680BC704780B483B000AF786039609C
:102BBC007B683A68DA6200BF0C37BD4680BC704750
:102BCC0080B483B000AF786039607B683A681A6370
:102BDC0000BF0C37BD4680BC704780B483B000AFDB
:102BEC00786039607B683A685A6300BF0C37BD4621
:102BFC0080BC704780B483B000AF786039607B686C
:102C0C003A689A6300BF0C37BD4680BC704780B4ED
:102C1C0083B000AF786039607B683A68DA6300BFD4
:102C2C000C37BD4680BC704780B483B000AF786071
:102C3C0039607B683A681A6400BF0C37BD4680BCAB
:102C4C00704780B483B000AF786039607B689B6854
:102C5C0023F007023B681A437B689A6000BF0C376D
:102C6C00BD4680BC704780B483B000AF78607B6891
:102C7C005B6943F001027B685A6100BF0C37BD46AB
:102C8C0080BC704780B483B000AF7860054B1A6984
:102C9C0004497B6813430B6100BF0C37BD4680BCF5
:102CAC00704700BF0010024080B483B000AF786062
:102CBC00054B1A697B68DB43034913400B6100BF6A
:102CCC000C37BD4680BC70470010024080B483B006
:102CDC0000AF7860054BDA6804497B681343CB601E
:102CEC0000BF0C37BD4680BC704700BF00100240CF
:102CFC0080B483B000AF7860054BDA687B68DB4347
:102D0C0003491340CB6000BF0C37BD4680BC7047F5
:102D1C000010024080B584B000AF78600023FB73D4
:102D2C007B68B3F1804F06D10120FFF7ABFF012088
:102D3C00FFF7BAFF24E07B68144A934208D14FF4A2
:102D4C000060FFF7C3FF4FF40060FFF7D1FF17E0FF
:102D5C007B680F4A934206D10220FFF793FF0220B3
:102D6C00FFF7A2FF0CE07B680A4A934206D10420CD
:102D7C00FFF788FF0420FFF797FF01E00123FB73A7
:102D8C00FB7B18461037BD4680BD00BF002C0140B0
:102D9C00000400400008004080B483B000AF7860AD
:102DAC007B6800221A807B6800225A607B684FF097
:102DBC00FF329A607B680022DA607B6800221A740A
:102DCC0000BF0C37BD4680BC704780B584B000AFE7
:102DDC00786039607B681B68FB607B68264A93428D
:102DEC000BD07B68B3F1804F07D07B68234A9342AA
:102DFC0003D07B68224A934206D1FB6823F0700211
:102E0C003B685B681343FB607B681B4A93420BD0A7
:102E1C007B68B3F1804F07D07B68184A934203D08C
:102E2C007B68174A934206D1FB6823F440723B68D7
:102E3C00DB681343FB607B68FA681A603B689B682D
:102E4C0019467868FFF7AFFE3B681B88194678680F
:102E5C00FFF79CFE7B68084A934205D13B681B7CBC
:102E6C0019467868FFF7ACFE7868FFF7FCFE002384
:102E7C0018461037BD4680BD002C014000040040B0
:102E8C000008004080B483B000AF78607B680022FB
:102E9C001A607B6800225A607B6800229A607B680B
:102EAC000022DA607B6800221A617B6800225A617A
:102EBC007B6800229A617B680022DA6100BF0C37C4
:102ECC00BD4680BC704780B586B000AFF860B96075
:102EDC007A600123FB75BB68102B16D0BB68102BD6
:102EEC0003D8BB68012B09D024E0BB68B3F5807F05
:102EFC0012D0BB68B3F5805F15D01BE07968F86819
:102F0C0000F0DCF90346FB7514E07968F86800F012
:102F1C003BFA0346FB750DE07968F86800F09EFA01
:102F2C000346FB7506E07968F86800F001FB034680
:102F3C00FB7500BFFB7D18461837BD4680BD80B4BD
:102F4C0083B000AF78607B6800221A607B684FF416
:102F5C0080325A607B6800229A607B680022DA60BB
:102F6C0000BF0C37BD4680BC704780B586B000AF43
:102F7C00F860B9607A600123FB75BB68102B16D022
:102F8C00BB68102B03D8BB68012B09D024E0BB68AD
:102F9C00B3F5807F12D0BB68B3F5805F15D01BE012
:102FAC007968F86800F016FB0346FB7514E0796845
:102FBC00F86800F03BFB0346FB750DE07968F86898
:102FCC0000F061FB0346FB7506E07968F86800F0D9
:102FDC0087FB0346FB7500BFFB7D18461837BD46C3
:102FEC0080BD80B483B000AF78607B6801221A602A
:102FFC007B6800225A607B684FF480329A607B6851
:10300C000022DA607B6800221A617B6800225A6118
:10301C007B684FF480329A617B680022DA617B68AE
:10302C0000221A6200BF0C37BD4680BC704780B5C9
:10303C0084B000AF786039607B681B6A23F01102A2
:10304C007B681A627B689B69FB607B681B6ABB6050
:10305C00FB6823F0FF03FB603B689B681B0CFA6862
:10306C001343FB603B681B691B0CFA681343FB6042
:10307C003B68DB681B0CFA681343FB60FB6823F4AA
:10308C007F43FB603B689B691B0AFA681343FB6038
:10309C003B681B6A1B0AFA681343FB603B68DB69DD
:1030AC001B0AFA681343FB60BB6823F0AA03BB60DE
:1030BC003B685B68BA681343BB603B685B691B0188
:1030CC00BA681343BB60BB6843F01103BB603B6839
:1030DC001B6819467868FFF7B4FD7B68FA689A613B
:1030EC007B68BA681A62002318461037BD4680BD4B
:1030FC0080B483B000AF78607B6800221A607B6874
:10310C0000225A607B6800229A607B680022DA6099
:10311C0000BF0C37BD4680BC704780B586B000AF91
:10312C00786039607B681B6A23F011027B681A6235
:10313C007B685B687B617B689B693B617B681B6A16
:10314C00FB607B689B68BB607B6943F080037B61A1
:10315C007B6943F050037B61BB6823F07703BB6052
:10316C00BB6843F04003BB60BB6843F00403BB6027
:10317C003B6923F0FF033B613B6943F003033B6175
:10318C003B689B681B0C3A6913433B613B685B686B
:10319C001B0C3A6913433B613B6923F47C433B6151
:1031AC003B6943F4E0433B61FB6823F0AA03FB60FB
:1031BC003B681B68FA681343FB60FB6843F0110320
:1031CC00FB607B687A695A607B68BA689A607B6836
:1031DC003A699A617B68FA681A623B68DB6819463F
:1031EC007868FFF707FD002318461837BD4680BDE9
:1031FC0080B483B000AF78607B6800221A607B6873
:10320C0000225A607B6800229A607B6800221A7345
:10321C007B680022DA817B6800221A617B680022BD
:10322C005A6100BF0C37BD4680BC704780B485B076
:10323C0000AF786039600023FB60FB6823F0FF036C
:10324C003A68127B1343FB60FB6823F440723B68C3
:10325C009B681343FB60FB6823F480623B685B68EC
:10326C001343FB60FB6823F400623B681B68134349
:10327C00FB60FB6823F480533A68D2891343FB60EC
:10328C00FB6823F400523B681B691343FB60FB682B
:10329C0023F480423B685B691343FB60FB6823F4B7
:1032AC0000423B685B691343FB607B68FA685A64B5
:1032BC00002318461437BD4680BC704780B586B0D5
:1032CC0000AF786039607B681B6A23F001027B6871
:1032DC001A627B681B6A7B617B685B683B617B68FD
:1032EC009B69FB60FB6823F00303FB60FB6823F026
:1032FC0070023B681B681343FB607B6923F002027E
:10330C003B681B6913437B617B6923F001023B68BB
:10331C005B6813437B617B681A4A93421ED17B69BD
:10332C0023F008023B685B699B0013437B617B695C
:10333C0023F004023B689B689B0013437B613B6951
:10334C0023F480723B689B6913433B613B6923F414
:10335C0000723B68DB695B0013433B617B683A6935
:10336C005A607B68FA689A613B68DB681946786832
:10337C00FFF733FC7B687A691A620023184618370A
:10338C00BD4680BD002C014080B586B000AF786092
:10339C0039607B681B6A23F010027B681A627B68B9
:1033AC001B6A7B617B685B683B617B689B69FB602C
:1033BC00FB6823F44073FB60FB6823F4E0423B683A
:1033CC001B681B021343FB607B6923F020023B68E4
:1033DC001B691B0113437B617B6923F010023B6863
:1033EC005B681B0113437B617B681B4A93421FD1B3
:1033FC007B6923F080023B685B699B0113437B6113
:10340C007B6923F040023B689B689B0113437B6103
:10341C003B6923F480623B689B699B0013433B61CF
:10342C003B6923F400623B68DB69DB0013433B61BF
:10343C007B683A695A607B68FA689A613B68DB681A
:10344C0019467868FFF7D6FB7B687A691A62002305
:10345C0018461837BD4680BD002C014080B586B09B
:10346C0000AF786039607B681B6A23F480727B68DC
:10347C001A627B681B6A7B617B685B683B617B685B
:10348C00DB69FB60FB6823F00303FB60FB6823F044
:10349C0070023B681B681343FB607B6923F400726A
:1034AC003B681B691B0213437B617B6923F48072AD
:1034BC003B685B681B0213437B617B681B4A93422E
:1034CC001FD17B6923F400623B685B699B02134349
:1034DC007B617B6923F480623B689B689B0213438E
:1034EC007B613B6923F480523B689B691B0113434E
:1034FC003B613B6923F400523B68DB695B0113437E
:10350C003B617B683A695A607B68FA68DA613B68B0
:10351C00DB6819467868FFF77AFB7B687A691A6270
:10352C00002318461837BD4680BD00BF002C014053
:10353C0080B586B000AF786039607B681B6A23F475
:10354C0080527B681A627B681B6A3B617B685B6894
:10355C007B617B68DB69FB60FB6823F44073FB6079
:10356C00FB6823F4E0423B681B681B021343FB60BF
:10357C003B6923F400523B681B691B0313433B61FB
:10358C003B6923F480523B685B681B0313433B612C
:10359C007B680F4A934207D17B6923F480423B68D6
:1035AC009B699B0113437B617B687A695A607B68DA
:1035BC00FA68DA613B68DB6819467868FFF734FB18
:1035CC007B683A691A62002318461837BD4680BDDD
:1035DC00002C014080B483B000AF786039607B6808
:1035EC001B6A23F001027B681A627B689B6923F0DB
:1035FC00FF023B6859683B68DB6819433B689B6872
:10360C000B431B0C1A437B689A617B681B6A23F083
:10361C000A023B681B68134343F001027B681A6281
:10362C00002318460C37BD4680BC704780B483B06D
:10363C0000AF786039607B681B6A23F010027B68EE
:10364C001A627B689B6923F47F423B6859683B682C
:10365C00DB6819433B689B680B431B0A1A437B6866
:10366C009A617B681B6A23F0A0023B681B681B01F4
:10367C00134343F010027B681A62002318460C3780
:10368C00BD4680BC704780B483B000AF78603960B1
:10369C007B681B6A23F480727B681A627B68DB6927
:1036AC0023F0FF023B6859683B68DB6819433B68B1
:1036BC009B680B431B0C1A437B68DA617B681B6AA3
:1036CC0023F420623B681B681B02134343F4807293
:1036DC007B681A62002318460C37BD4680BC7047C5
:1036EC0080B483B000AF786039607B681B6A23F4C8
:1036FC0080527B681A627B68DB6923F47F423B68EB
:10370C0059683B68DB6819433B689B680B431B0A91
:10371C001A437B68DA617B681B6A23F400523B68AE
:10372C001B681B03134343F480527B681A6200230B
:10373C0018460C37BD4680BC704700BF002103E023
:10374C000B4B5B58435004310A480B4B42189A42BE
:10375C00F6D30A4A02E0002342F8043B084B9A4293
:10376C00F9D3FCF751FD00F01FF8FCF730FD704762
:10377C00CC3A0008000000203C0400203C0400204F
:10378C007C040020FEE7000008B50021044600F090
:10379C0089F8044B1868C36B03B19847204600F0B6
:1037AC005FF900BFB43A000870B50D4E0D4D761B95
:1037BC00B61006D00024013455F8043B9847A642B5
:1037CC00F9D1094E094D00F03FF9761BB61006D021
:1037DC000024013455F8043B9847A642F9D170BD3A
:1037EC00C03A0008C03A0008C83A0008C03A0008BD
:1037FC00F0B4860746D0541E002A3CD0CAB2034609
:10380C0002E014F1FF3436D303F8012B9D07F8D1F5
:10381C00032C29D9CDB245EA05250F2C45EA0545DF
:10382C0033D9A4F11006360903F1200707EB06176C
:10383C0003F1100242E9045542E902551032BA4232
:10384C00F8D1721C14F00C0F03EB021204F00F06EB
:10385C0013D0331F23F003030433134442F8045BE7
:10386C009342FBD106F003042CB1C9B21C4403F8FB
:10387C00011B9C42FBD1F0BC704734461346002C14
:10388C00F3D1F8E714460346C2E71A462646E0E7AA
:10389C00024B13B1024800F05DB870470000000005
:1038AC006D3900082DE9F04F4FF00009274B83B01C
:1038BC00019018680F4600F077F8254BD3F800A05C
:1038CC00DAF848618EB17468651E0ED44FF00108A9
:1038DC00444406EB84047FB1D4F80031BB420BD0D6
:1038EC00013D6B1CA4F10404F5D1184B186803B00E
:1038FC00BDE8F04F00F060B873682268013BAB4242
:10390C000CBF7560C4F80090002AE9D0D6F8881175
:10391C0008FA05FC1CEA010FD6F804B008D1904750
:10392C0072685A45CCD1DAF84831B342D8D0C7E7DF
:10393C00D6F88C31D4F880101CEA030F02D1019810
:10394C009047EDE708469047EAE700BF38040020AF
:10395C00B43A0008002301461A46184600F02EB867
:10396C0038B50A4C0A4D641BA4100AD004F18043EC
:10397C00013B05EB8305013C55F804399847002CB5
:10398C00F9D1BDE8384000F065B800BFCC3A00086A
:10399C00C83A0008704700BF704700BF704700BFAF
:1039AC00704700BF704700BF704700BF01207047D1
:1039BC0001207047704700BF704700BF2DE9F041F0
:1039CC001D4C0546206890461F460E46FFF7ECFF3F
:1039DC001A4B1A68D2F848311BB35A6820681F2A50
:1039EC0024DC4DB9511C0232596043F82260FFF7B8
:1039FC00E3FF0020BDE8F081012403EB820CCCF83E
:103A0C008880D3F8881194402143022DC3F8881183
:103A1C00CCF80871E6D1D3F88C110C43C3F88C4167
:103A2C00E0E702F5A673C2F84831D6E7FFF7C4FF0A
:103A3C004FF0FF30DEE700BF38040020B43A000836
:103A4C00FEE700BF00000000F8B500BFF8BC08BCE2
:103A5C009E467047F8B500BFF8BC08BC9E46704740
:103A6C000000000000000000010203040607080922
:103A7C000000000001020304081C3044586C800054
:103A8C00000000000404040000000800000008000E
:103A9C00000008000000080000020406080A0C00E0
:0C3AAC00000102030405060010000020C9
:083AB80094C6FF7F010000002D
:083AC0009D38000831010008E7
:043AC8000D010008E4
:103ACC00000000000024F4001000002000000000A2
:103ADC0000000000FC02002064030020CC03002046
:103AEC0000000000000000000000000000000000CA
:103AFC0000000000000000000000000000000000BA
:103B0C0000000000000000000000000000000000A9
:103B1C000000000000000000000000000000000099
:103B2C000000000000000000000000000000000089
:103B3C000000000000000000000000000000000079
:103B4C000000000000000000000000000000000069
:103B5C000000000000000000000000000000000059
:103B6C000000000000000000000000000000000049
:103B7C000000000000000000010000000000000038
:103B8C000E33CDAB34126DE6ECDE05000B000000FD
:103B9C000000000000000000000000000000000019
:103BAC000000000000000000000000000000000009
:103BBC0000000000000000000000000000000000F9
:103BCC0000000000000000000000000000000000E9
:0C3EFC000000000000000000580400203E
:04000005080037496F
:00000001FF
